{
  "contractName": "Demo",
  "abi": [
    {
      "inputs": [],
      "payable": false,
      "stateMutability": "nonpayable",
      "type": "constructor"
    },
    {
      "anonymous": false,
      "inputs": [
        {
          "indexed": true,
          "internalType": "address",
          "name": "_from",
          "type": "address"
        },
        {
          "indexed": false,
          "internalType": "uint256",
          "name": "_value",
          "type": "uint256"
        }
      ],
      "name": "Noice",
      "type": "event"
    },
    {
      "constant": true,
      "inputs": [],
      "name": "balance",
      "outputs": [
        {
          "internalType": "uint256",
          "name": "",
          "type": "uint256"
        }
      ],
      "payable": false,
      "stateMutability": "view",
      "type": "function"
    },
    {
      "constant": false,
      "inputs": [],
      "name": "contribute",
      "outputs": [],
      "payable": true,
      "stateMutability": "payable",
      "type": "function"
    }
  ],
  "bytecode": "0x6080604052348015600f57600080fd5b506000808190555060f5806100256000396000f3fe60806040526004361060265760003560e01c8063b69ef8a814602b578063d7bb99ba146053575b600080fd5b348015603657600080fd5b50603d605b565b6040518082815260200191505060405180910390f35b60596061565b005b60005481565b3460008082825401925050819055503373ffffffffffffffffffffffffffffffffffffffff167f1d08917b7f4ae4ed884ab6294c77b6b88a83f70f9a40f2f00fc659c426ea8298346040518082815260200191505060405180910390a256fea265627a7a72315820198e9e7cfff7a10bd80159dff7ff72361caf06a3f8eb104928b59f8a9f47d93b64736f6c63430005100032",
  "source": "pragma solidity ^0.5.16;\n\ncontract Demo {\n    uint public balance;\n    //Declare an Event\n    event Noice(address indexed _from, uint _value);\n\n    // Initialize global variables\n    constructor() public\n    {\n        balance = 0;\n    }\n\n    // The payable keyword allows this function to accept Ether\n    function contribute() public payable\n    {\n        // msg.value is the value of Ether sent in a transaction\n        balance += msg.value;\n        emit Noice(msg.sender, msg.value);\n\t\t\t\n    }\n}\n",
  "sourcePath": "/Users/alderfrench/Desktop/NOCASHVALUE/Learn/miscProgs/0_eth-crypto_test/truffle_stuff/contracts/Demo.sol",
  "compiler": {
    "name": "solc",
    "version": "0.5.16+commit.9c3226ce.Emscripten.clang"
  },
  "schemaVersion": "3.4.3",
  "updatedAt": "2021-08-23T22:12:31.496Z",
  "networkType": "ethereum",
  "devdoc": {
    "methods": {}
  },
  "userdoc": {
    "methods": {}
  }
}